{
  "_format": "hh3-artifact-1",
  "contractName": "TraDeckNFT",
  "sourceName": "contracts/TraDeckNFT.sol",
  "abi": [
    {
      "inputs": [],
      "stateMutability": "nonpayable",
      "type": "constructor"
    },
    {
      "inputs": [
        {
          "internalType": "address",
          "name": "sender",
          "type": "address"
        },
        {
          "internalType": "uint256",
          "name": "tokenId",
          "type": "uint256"
        },
        {
          "internalType": "address",
          "name": "owner",
          "type": "address"
        }
      ],
      "name": "ERC721IncorrectOwner",
      "type": "error"
    },
    {
      "inputs": [
        {
          "internalType": "address",
          "name": "operator",
          "type": "address"
        },
        {
          "internalType": "uint256",
          "name": "tokenId",
          "type": "uint256"
        }
      ],
      "name": "ERC721InsufficientApproval",
      "type": "error"
    },
    {
      "inputs": [
        {
          "internalType": "address",
          "name": "approver",
          "type": "address"
        }
      ],
      "name": "ERC721InvalidApprover",
      "type": "error"
    },
    {
      "inputs": [
        {
          "internalType": "address",
          "name": "operator",
          "type": "address"
        }
      ],
      "name": "ERC721InvalidOperator",
      "type": "error"
    },
    {
      "inputs": [
        {
          "internalType": "address",
          "name": "owner",
          "type": "address"
        }
      ],
      "name": "ERC721InvalidOwner",
      "type": "error"
    },
    {
      "inputs": [
        {
          "internalType": "address",
          "name": "receiver",
          "type": "address"
        }
      ],
      "name": "ERC721InvalidReceiver",
      "type": "error"
    },
    {
      "inputs": [
        {
          "internalType": "address",
          "name": "sender",
          "type": "address"
        }
      ],
      "name": "ERC721InvalidSender",
      "type": "error"
    },
    {
      "inputs": [
        {
          "internalType": "uint256",
          "name": "tokenId",
          "type": "uint256"
        }
      ],
      "name": "ERC721NonexistentToken",
      "type": "error"
    },
    {
      "anonymous": false,
      "inputs": [
        {
          "indexed": true,
          "internalType": "address",
          "name": "owner",
          "type": "address"
        },
        {
          "indexed": true,
          "internalType": "address",
          "name": "approved",
          "type": "address"
        },
        {
          "indexed": true,
          "internalType": "uint256",
          "name": "tokenId",
          "type": "uint256"
        }
      ],
      "name": "Approval",
      "type": "event"
    },
    {
      "anonymous": false,
      "inputs": [
        {
          "indexed": true,
          "internalType": "address",
          "name": "owner",
          "type": "address"
        },
        {
          "indexed": true,
          "internalType": "address",
          "name": "operator",
          "type": "address"
        },
        {
          "indexed": false,
          "internalType": "bool",
          "name": "approved",
          "type": "bool"
        }
      ],
      "name": "ApprovalForAll",
      "type": "event"
    },
    {
      "anonymous": false,
      "inputs": [
        {
          "indexed": false,
          "internalType": "uint256",
          "name": "_fromTokenId",
          "type": "uint256"
        },
        {
          "indexed": false,
          "internalType": "uint256",
          "name": "_toTokenId",
          "type": "uint256"
        }
      ],
      "name": "BatchMetadataUpdate",
      "type": "event"
    },
    {
      "anonymous": false,
      "inputs": [
        {
          "indexed": false,
          "internalType": "uint256",
          "name": "_tokenId",
          "type": "uint256"
        }
      ],
      "name": "MetadataUpdate",
      "type": "event"
    },
    {
      "anonymous": false,
      "inputs": [
        {
          "indexed": true,
          "internalType": "address",
          "name": "from",
          "type": "address"
        },
        {
          "indexed": true,
          "internalType": "address",
          "name": "to",
          "type": "address"
        },
        {
          "indexed": true,
          "internalType": "uint256",
          "name": "tokenId",
          "type": "uint256"
        }
      ],
      "name": "Transfer",
      "type": "event"
    },
    {
      "inputs": [
        {
          "internalType": "address",
          "name": "to",
          "type": "address"
        },
        {
          "internalType": "uint256",
          "name": "tokenId",
          "type": "uint256"
        }
      ],
      "name": "approve",
      "outputs": [],
      "stateMutability": "nonpayable",
      "type": "function"
    },
    {
      "inputs": [
        {
          "internalType": "address",
          "name": "owner",
          "type": "address"
        }
      ],
      "name": "balanceOf",
      "outputs": [
        {
          "internalType": "uint256",
          "name": "",
          "type": "uint256"
        }
      ],
      "stateMutability": "view",
      "type": "function"
    },
    {
      "inputs": [
        {
          "internalType": "uint256",
          "name": "tokenId",
          "type": "uint256"
        }
      ],
      "name": "buyCard",
      "outputs": [],
      "stateMutability": "payable",
      "type": "function"
    },
    {
      "inputs": [
        {
          "internalType": "uint256",
          "name": "tokenId",
          "type": "uint256"
        }
      ],
      "name": "confirmDelivery",
      "outputs": [],
      "stateMutability": "nonpayable",
      "type": "function"
    },
    {
      "inputs": [
        {
          "internalType": "uint256",
          "name": "tokenId",
          "type": "uint256"
        }
      ],
      "name": "getApproved",
      "outputs": [
        {
          "internalType": "address",
          "name": "",
          "type": "address"
        }
      ],
      "stateMutability": "view",
      "type": "function"
    },
    {
      "inputs": [
        {
          "internalType": "address",
          "name": "owner",
          "type": "address"
        },
        {
          "internalType": "address",
          "name": "operator",
          "type": "address"
        }
      ],
      "name": "isApprovedForAll",
      "outputs": [
        {
          "internalType": "bool",
          "name": "",
          "type": "bool"
        }
      ],
      "stateMutability": "view",
      "type": "function"
    },
    {
      "inputs": [
        {
          "internalType": "uint256",
          "name": "tokenId",
          "type": "uint256"
        },
        {
          "internalType": "uint256",
          "name": "price",
          "type": "uint256"
        }
      ],
      "name": "listForSale",
      "outputs": [],
      "stateMutability": "nonpayable",
      "type": "function"
    },
    {
      "inputs": [
        {
          "internalType": "string",
          "name": "tokenURI",
          "type": "string"
        }
      ],
      "name": "mintCard",
      "outputs": [
        {
          "internalType": "uint256",
          "name": "",
          "type": "uint256"
        }
      ],
      "stateMutability": "nonpayable",
      "type": "function"
    },
    {
      "inputs": [],
      "name": "name",
      "outputs": [
        {
          "internalType": "string",
          "name": "",
          "type": "string"
        }
      ],
      "stateMutability": "view",
      "type": "function"
    },
    {
      "inputs": [
        {
          "internalType": "uint256",
          "name": "tokenId",
          "type": "uint256"
        }
      ],
      "name": "ownerOf",
      "outputs": [
        {
          "internalType": "address",
          "name": "",
          "type": "address"
        }
      ],
      "stateMutability": "view",
      "type": "function"
    },
    {
      "inputs": [
        {
          "internalType": "address",
          "name": "from",
          "type": "address"
        },
        {
          "internalType": "address",
          "name": "to",
          "type": "address"
        },
        {
          "internalType": "uint256",
          "name": "tokenId",
          "type": "uint256"
        }
      ],
      "name": "safeTransferFrom",
      "outputs": [],
      "stateMutability": "nonpayable",
      "type": "function"
    },
    {
      "inputs": [
        {
          "internalType": "address",
          "name": "from",
          "type": "address"
        },
        {
          "internalType": "address",
          "name": "to",
          "type": "address"
        },
        {
          "internalType": "uint256",
          "name": "tokenId",
          "type": "uint256"
        },
        {
          "internalType": "bytes",
          "name": "data",
          "type": "bytes"
        }
      ],
      "name": "safeTransferFrom",
      "outputs": [],
      "stateMutability": "nonpayable",
      "type": "function"
    },
    {
      "inputs": [
        {
          "internalType": "address",
          "name": "operator",
          "type": "address"
        },
        {
          "internalType": "bool",
          "name": "approved",
          "type": "bool"
        }
      ],
      "name": "setApprovalForAll",
      "outputs": [],
      "stateMutability": "nonpayable",
      "type": "function"
    },
    {
      "inputs": [
        {
          "internalType": "bytes4",
          "name": "interfaceId",
          "type": "bytes4"
        }
      ],
      "name": "supportsInterface",
      "outputs": [
        {
          "internalType": "bool",
          "name": "",
          "type": "bool"
        }
      ],
      "stateMutability": "view",
      "type": "function"
    },
    {
      "inputs": [],
      "name": "symbol",
      "outputs": [
        {
          "internalType": "string",
          "name": "",
          "type": "string"
        }
      ],
      "stateMutability": "view",
      "type": "function"
    },
    {
      "inputs": [
        {
          "internalType": "uint256",
          "name": "tokenId",
          "type": "uint256"
        }
      ],
      "name": "tokenURI",
      "outputs": [
        {
          "internalType": "string",
          "name": "",
          "type": "string"
        }
      ],
      "stateMutability": "view",
      "type": "function"
    },
    {
      "inputs": [
        {
          "internalType": "uint256",
          "name": "",
          "type": "uint256"
        }
      ],
      "name": "trades",
      "outputs": [
        {
          "internalType": "address",
          "name": "seller",
          "type": "address"
        },
        {
          "internalType": "address",
          "name": "buyer",
          "type": "address"
        },
        {
          "internalType": "uint256",
          "name": "price",
          "type": "uint256"
        },
        {
          "internalType": "enum TraDeckNFT.TradeState",
          "name": "state",
          "type": "uint8"
        }
      ],
      "stateMutability": "view",
      "type": "function"
    },
    {
      "inputs": [
        {
          "internalType": "address",
          "name": "from",
          "type": "address"
        },
        {
          "internalType": "address",
          "name": "to",
          "type": "address"
        },
        {
          "internalType": "uint256",
          "name": "tokenId",
          "type": "uint256"
        }
      ],
      "name": "transferFrom",
      "outputs": [],
      "stateMutability": "nonpayable",
      "type": "function"
    }
  ],
  "bytecode": "0x608060405234801561000f575f5ffd5b50604051806040016040528060078152602001665472614465636b60c81b8152506040518060400160405280600381526020016254444b60e81b815250815f908161005a9190610107565b5060016100678282610107565b5050506101c1565b634e487b7160e01b5f52604160045260245ffd5b600181811c9082168061009757607f821691505b6020821081036100b557634e487b7160e01b5f52602260045260245ffd5b50919050565b601f82111561010257805f5260205f20601f840160051c810160208510156100e05750805b601f840160051c820191505b818110156100ff575f81556001016100ec565b50505b505050565b81516001600160401b038111156101205761012061006f565b6101348161012e8454610083565b846100bb565b6020601f821160018114610166575f831561014f5750848201515b5f19600385901b1c1916600184901b1784556100ff565b5f84815260208120601f198516915b828110156101955787850151825560209485019460019092019101610175565b50848210156101b257868401515f19600387901b60f8161c191681555b50505050600190811b01905550565b611a5c806101ce5f395ff3fe608060405260043610610105575f3560e01c806395d89b4111610092578063c87b56dd11610062578063c87b56dd14610305578063e80d7fec14610324578063e985e9c514610343578063f0ce512014610362578063fd84cb9714610381575f5ffd5b806395d89b41146102a0578063a22cb465146102b4578063b88d4fde146102d3578063c70f5eaa146102f2575f5ffd5b80631e6c598e116100d85780631e6c598e146101b657806323b872dd1461021657806342842e0e146102355780636352211e1461025457806370a0823114610273575f5ffd5b806301ffc9a71461010957806306fdde031461013d578063081812fc1461015e578063095ea7b314610195575b5f5ffd5b348015610114575f5ffd5b50610128610123366004611512565b6103a0565b60405190151581526020015b60405180910390f35b348015610148575f5ffd5b506101516103ca565b604051610134919061155b565b348015610169575f5ffd5b5061017d61017836600461156d565b610459565b6040516001600160a01b039091168152602001610134565b3480156101a0575f5ffd5b506101b46101af36600461159f565b610480565b005b3480156101c1575f5ffd5b506102066101d036600461156d565b60086020525f908152604090208054600182015460028301546003909301546001600160a01b0392831693919092169160ff1684565b60405161013494939291906115db565b348015610221575f5ffd5b506101b4610230366004611625565b61048f565b348015610240575f5ffd5b506101b461024f366004611625565b61051d565b34801561025f575f5ffd5b5061017d61026e36600461156d565b61053c565b34801561027e575f5ffd5b5061029261028d36600461165f565b610546565b604051908152602001610134565b3480156102ab575f5ffd5b5061015161058b565b3480156102bf575f5ffd5b506101b46102ce366004611678565b61059a565b3480156102de575f5ffd5b506101b46102ed36600461173c565b6105a5565b6101b461030036600461156d565b6105bd565b348015610310575f5ffd5b5061015161031f36600461156d565b61073f565b34801561032f575f5ffd5b506101b461033e3660046117b3565b6107c0565b34801561034e575f5ffd5b5061012861035d3660046117d3565b61099b565b34801561036d575f5ffd5b5061029261037c366004611804565b6109c8565b34801561038c575f5ffd5b506101b461039b36600461156d565b6109f5565b5f6001600160e01b03198216632483248360e11b14806103c457506103c482610bea565b92915050565b60605f80546103d890611849565b80601f016020809104026020016040519081016040528092919081815260200182805461040490611849565b801561044f5780601f106104265761010080835404028352916020019161044f565b820191905f5260205f20905b81548152906001019060200180831161043257829003601f168201915b5050505050905090565b5f61046382610c39565b505f828152600460205260409020546001600160a01b03166103c4565b61048b828233610c71565b5050565b6001600160a01b0382166104bd57604051633250574960e11b81525f60048201526024015b60405180910390fd5b5f6104c9838333610c7e565b9050836001600160a01b0316816001600160a01b031614610517576040516364283d7b60e01b81526001600160a01b03808616600483015260248201849052821660448201526064016104b4565b50505050565b61053783838360405180602001604052805f8152506105a5565b505050565b5f6103c482610c39565b5f6001600160a01b038216610570576040516322718ad960e21b81525f60048201526024016104b4565b506001600160a01b03165f9081526003602052604090205490565b6060600180546103d890611849565b61048b338383610d70565b6105b084848461048f565b6105173385858585610e37565b5f8181526008602052604090206001600382015460ff1660028111156105e5576105e56115c7565b146106415760405162461bcd60e51b815260206004820152602660248201527f4c61206361727461206e6f2065737461206c6973746164612070617261206c616044820152652076656e746160d01b60648201526084016104b4565b806002015434146106b35760405162461bcd60e51b815260206004820152603660248201527f456c2076616c6f7220656e766961646f206e6f20636f696e6369646520636f6e60448201527520656c2070726563696f206465206c6120636172746160501b60648201526084016104b4565b8054336001600160a01b03909116036107185760405162461bcd60e51b815260206004820152602160248201527f4e6f2070756564657320636f6d707261722074752070726f70696120636172746044820152606160f81b60648201526084016104b4565b600181018054336001600160a01b0319909116179055600301805460ff1916600217905550565b606061074a82610c39565b505f61076060408051602081019091525f815290565b90505f61076c84610f5d565b905081515f0361077d579392505050565b8051156107af578181604051602001610797929190611898565b60405160208183030381529060405292505050919050565b6107b884610ffc565b949350505050565b336107ca8361053c565b6001600160a01b0316146108325760405162461bcd60e51b815260206004820152602960248201527f536f6c6f20656c2070726f706965746172696f207075656465206c6973746172604482015268206c6120636172746160b81b60648201526084016104b4565b5f81116108815760405162461bcd60e51b815260206004820152601f60248201527f456c2070726563696f206465626520736572206d61796f722061206365726f0060448201526064016104b4565b5f8281526008602052604081206003015460ff1660028111156108a6576108a66115c7565b146108f35760405162461bcd60e51b815260206004820152601860248201527f4c612063617274612079612065737461206c697374616461000000000000000060448201526064016104b4565b6108fe33308461106d565b604080516080810182523381525f6020808301828152838501868152600160608601818152898652600890945295909320845181546001600160a01b03199081166001600160a01b039283161783559251828801805490941691161790915591516002808401919091559051600383018054949593949193909260ff19909216918490811115610990576109906115c7565b021790555050505050565b6001600160a01b039182165f90815260056020908152604080832093909416825291909152205460ff1690565b600780545f91829190826109db836118ac565b9190505590506109eb338261111a565b6103c4818461117b565b5f8181526008602052604090206002600382015460ff166002811115610a1d57610a1d6115c7565b14610a6a5760405162461bcd60e51b815260206004820181905260248201527f4c61207472616e73616363696f6e206e6f206573746120656e20457363726f7760448201526064016104b4565b60018101546001600160a01b03163314610adb5760405162461bcd60e51b815260206004820152602c60248201527f536f6c6f20656c20636f6d707261646f7220707565646520636f6e6669726d6160448201526b72206c6120656e747265676160a01b60648201526084016104b4565b80546001808301546002808501545f8781526008602052604080822080546001600160a01b0319908116825596810180549097169096559285018190556003909401805460ff1916905590516001600160a01b0394851694909216929091849083908381818185875af1925050503d805f8114610b73576040519150601f19603f3d011682016040523d82523d5f602084013e610b78565b606091505b5050905080610bd75760405162461bcd60e51b815260206004820152602560248201527f46616c6c6f20616c20656e7669617220656c2064696e65726f20616c2076656e6044820152643232b237b960d91b60648201526084016104b4565b610be230848861106d565b505050505050565b5f6001600160e01b031982166380ac58cd60e01b1480610c1a57506001600160e01b03198216635b5e139f60e01b145b806103c457506301ffc9a760e01b6001600160e01b03198316146103c4565b5f818152600260205260408120546001600160a01b0316806103c457604051637e27328960e01b8152600481018490526024016104b4565b61053783838360016111ca565b5f828152600260205260408120546001600160a01b0390811690831615610caa57610caa8184866112ce565b6001600160a01b03811615610ce457610cc55f855f5f6111ca565b6001600160a01b0381165f90815260036020526040902080545f190190555b6001600160a01b03851615610d12576001600160a01b0385165f908152600360205260409020805460010190555b5f8481526002602052604080822080546001600160a01b0319166001600160a01b0389811691821790925591518793918516917fddf252ad1be2c89b69c2b068fc378daa952ba7f163c4a11628f55a4df523b3ef91a4949350505050565b6001600160a01b038316610d995760405163a9fbf51f60e01b81525f60048201526024016104b4565b6001600160a01b038216610dcb57604051630b61174360e31b81526001600160a01b03831660048201526024016104b4565b6001600160a01b038381165f81815260056020908152604080832094871680845294825291829020805460ff191686151590811790915591519182527f17307eab39ab6107e8899845ad3d59bd9653f200f220920489ca2b5937696c31910160405180910390a3505050565b6001600160a01b0383163b15610f5657604051630a85bd0160e11b81526001600160a01b0384169063150b7a0290610e799088908890879087906004016118d0565b6020604051808303815f875af1925050508015610eb3575060408051601f3d908101601f19168201909252610eb09181019061190c565b60015b610f1a573d808015610ee0576040519150601f19603f3d011682016040523d82523d5f602084013e610ee5565b606091505b5080515f03610f1257604051633250574960e11b81526001600160a01b03851660048201526024016104b4565b805160208201fd5b6001600160e01b03198116630a85bd0160e11b14610be257604051633250574960e11b81526001600160a01b03851660048201526024016104b4565b5050505050565b5f818152600660205260409020805460609190610f7990611849565b80601f0160208091040260200160405190810160405280929190818152602001828054610fa590611849565b8015610ff05780601f10610fc757610100808354040283529160200191610ff0565b820191905f5260205f20905b815481529060010190602001808311610fd357829003601f168201915b50505050509050919050565b606061100782610c39565b505f61101d60408051602081019091525f815290565b90505f81511161103b5760405180602001604052805f815250611066565b8061104584611332565b604051602001611056929190611898565b6040516020818303038152906040525b9392505050565b6001600160a01b03821661109657604051633250574960e11b81525f60048201526024016104b4565b5f6110a283835f610c7e565b90506001600160a01b0381166110ce57604051637e27328960e01b8152600481018390526024016104b4565b836001600160a01b0316816001600160a01b031614610517576040516364283d7b60e01b81526001600160a01b03808616600483015260248201849052821660448201526064016104b4565b6001600160a01b03821661114357604051633250574960e11b81525f60048201526024016104b4565b5f61114f83835f610c7e565b90506001600160a01b03811615610537576040516339e3563760e11b81525f60048201526024016104b4565b5f828152600660205260409020611192828261196b565b506040518281527ff8e1a15aba9398e019f0b49df1a4fde98ee17ae345cb5f6b5e2c27f5033e8ce79060200160405180910390a15050565b80806111de57506001600160a01b03821615155b1561129f575f6111ed84610c39565b90506001600160a01b038316158015906112195750826001600160a01b0316816001600160a01b031614155b801561122c575061122a818461099b565b155b156112555760405163a9fbf51f60e01b81526001600160a01b03841660048201526024016104b4565b811561129d5783856001600160a01b0316826001600160a01b03167f8c5be1e5ebec7d5bd14f71427d1e84f3dd0314c0f7b2291e5b200ac8c7c3b92560405160405180910390a45b505b50505f90815260046020526040902080546001600160a01b0319166001600160a01b0392909216919091179055565b6112d98383836113c2565b610537576001600160a01b03831661130757604051637e27328960e01b8152600481018290526024016104b4565b60405163177e802f60e01b81526001600160a01b0383166004820152602481018290526044016104b4565b60605f61133e83611423565b60010190505f8167ffffffffffffffff81111561135d5761135d6116b1565b6040519080825280601f01601f191660200182016040528015611387576020820181803683370190505b5090508181016020015b5f19016f181899199a1a9b1b9c1cb0b131b232b360811b600a86061a8153600a850494508461139157509392505050565b5f6001600160a01b038316158015906107b85750826001600160a01b0316846001600160a01b031614806113fb57506113fb848461099b565b806107b85750505f908152600460205260409020546001600160a01b03908116911614919050565b5f8072184f03e93ff9f4daa797ed6e38ed64bf6a1f0160401b83106114615772184f03e93ff9f4daa797ed6e38ed64bf6a1f0160401b830492506040015b6d04ee2d6d415b85acef8100000000831061148d576d04ee2d6d415b85acef8100000000830492506020015b662386f26fc1000083106114ab57662386f26fc10000830492506010015b6305f5e10083106114c3576305f5e100830492506008015b61271083106114d757612710830492506004015b606483106114e9576064830492506002015b600a83106103c45760010192915050565b6001600160e01b03198116811461150f575f5ffd5b50565b5f60208284031215611522575f5ffd5b8135611066816114fa565b5f81518084528060208401602086015e5f602082860101526020601f19601f83011685010191505092915050565b602081525f611066602083018461152d565b5f6020828403121561157d575f5ffd5b5035919050565b80356001600160a01b038116811461159a575f5ffd5b919050565b5f5f604083850312156115b0575f5ffd5b6115b983611584565b946020939093013593505050565b634e487b7160e01b5f52602160045260245ffd5b6001600160a01b0385811682528416602082015260408101839052608081016003831061161657634e487b7160e01b5f52602160045260245ffd5b82606083015295945050505050565b5f5f5f60608486031215611637575f5ffd5b61164084611584565b925061164e60208501611584565b929592945050506040919091013590565b5f6020828403121561166f575f5ffd5b61106682611584565b5f5f60408385031215611689575f5ffd5b61169283611584565b9150602083013580151581146116a6575f5ffd5b809150509250929050565b634e487b7160e01b5f52604160045260245ffd5b5f5f67ffffffffffffffff8411156116df576116df6116b1565b50604051601f19601f85018116603f0116810181811067ffffffffffffffff8211171561170e5761170e6116b1565b604052838152905080828401851015611725575f5ffd5b838360208301375f60208583010152509392505050565b5f5f5f5f6080858703121561174f575f5ffd5b61175885611584565b935061176660208601611584565b925060408501359150606085013567ffffffffffffffff811115611788575f5ffd5b8501601f81018713611798575f5ffd5b6117a7878235602084016116c5565b91505092959194509250565b5f5f604083850312156117c4575f5ffd5b50508035926020909101359150565b5f5f604083850312156117e4575f5ffd5b6117ed83611584565b91506117fb60208401611584565b90509250929050565b5f60208284031215611814575f5ffd5b813567ffffffffffffffff81111561182a575f5ffd5b8201601f8101841361183a575f5ffd5b6107b8848235602084016116c5565b600181811c9082168061185d57607f821691505b60208210810361187b57634e487b7160e01b5f52602260045260245ffd5b50919050565b5f81518060208401855e5f93019283525090919050565b5f6107b86118a68386611881565b84611881565b5f600182016118c957634e487b7160e01b5f52601160045260245ffd5b5060010190565b6001600160a01b03858116825284166020820152604081018390526080606082018190525f906119029083018461152d565b9695505050505050565b5f6020828403121561191c575f5ffd5b8151611066816114fa565b601f82111561053757805f5260205f20601f840160051c8101602085101561194c5750805b601f840160051c820191505b81811015610f56575f8155600101611958565b815167ffffffffffffffff811115611985576119856116b1565b611999816119938454611849565b84611927565b6020601f8211600181146119cb575f83156119b45750848201515b5f19600385901b1c1916600184901b178455610f56565b5f84815260208120601f198516915b828110156119fa57878501518255602094850194600190920191016119da565b5084821015611a1757868401515f19600387901b60f8161c191681555b50505050600190811b0190555056fea2646970667358221220c9704b01bd2a0b528b08858654b7b04b7a69b2e0e3b6cd3b687bbcc21dd6b6c764736f6c634300081c0033",
  "linkReferences": {},
  "deployedLinkReferences": {},
  "immutableReferences": {},
  "inputSourceName": "project/contracts/TraDeckNFT.sol",
  "buildInfoId": "solc-0_8_28-7764fc102a357a4e1d5f8ba18e512e7bdb4f9ca0"
}